S01700004763634170706C69636174696F6E312E737265635B
S113000009C021C020C01FC01EC01DC01CC01BC011
S11300101AC019C011241FBECFE9CDBF10E0A0E65D
S1130020B0E0E2EBF3E002C005900D92AC36B1070C
S1130030D9F720E0ACE6B0E001C01D92AC38B207BD
S1130040E1F711D1B4C1DCCFBB9AC3988FE794E038
S11300500197F1F700C00000BB98C39A90EE9A95FF
S1130060F1F786B3E8EDF3E03197F1F783FB8827E6
S113007080F991E089270895BB9AC39883E08A9513
S1130080F1F70000BB98C39A90E29A95F1F786B312
S113009099EA9A95F1F700C083FB882780F90895BF
S11300A0CF93DF93D8E0C0E0C695E6DF8111C06846
S11300B0D150D1F78C2FDF91CF910895C198E9EFFA
S11300C0F0E03197F1F700C098E080FF02C0C19AD8
S11300D001C0C198E9EFF0E03197F1F700C08695CF
S11300E0915099F7C19A89EF90E00197F1F700C018
S11300F00895BB9AC398882349F083E08A95F1F761
S11301000000BB9880EC8A95F1F7089580EC8A95FD
S1130110F1F7BB9883E08A95F1F700000895CF9337
S1130120DF93D82FC8E08D2F8170E3DFD695C150BF
S1130130D1F7DF91CF9108955F926F927F928F9262
S11301409F92AF92BF92CF92DF92EF92FF920F9362
S11301501F93CF93DF93CDB7DD27C850CDBF8E015A
S11301600F5F1F4F28E0F80111922A95E9F77C01EF
S1130170612C812CCC24C394D12C5E01F9E0AF0E08
S1130180B11C62DF882309F45BC080EFC8DF912CC7
S1130190712C72DF582E70DF552019F08823F9F086
S11301A04FC081111CC09614A0F4892D86958695A4
S11301B08695F801E80FF11D808190E0292D2770C4
S11301C002C0959587952A95E2F7282F2170522E23
S11301D006C0961411F0792C02C055245394852D31
S11301E088DF992D969596959695892D8770F801B7
S11301F0E90FF11D960102C0220F331F8A95E2F721
S1130200C901552019F09081892B03C080959081F4
S113021089238083939430E49312BBCFF801D701F0
S113022081918D93AE16BF06D9F78394772041F060
S113023088E0E80EF11CE4E08E1611F0672CA1CFE3
S1130240882DC85FCDBFDF91CF911F910F91FF9093
S1130250EF90DF90CF90BF90AF909F908F907F9062
S11302606F905F90089587B38A6187BBC498B99AE9
S1130270C19A8CE690E060DFC82E882311F0E12C4F
S113028038C08EE41BDF8DE019DFFFCFEE2329F0A9
S1130290F0E0E05AFF4F808111DFF801E05AFF4F90
S11302A080810CDF83E40ADF8DE008DFCE32D105E4
S11302B00CF073C0A8970CF0D12CF394CF102DC080
S11302C0E1106FC0BB2019F0C49AEE24E39482E5D8
S11302D0F5DE8AE3F3DE80E38E0DF0DE8DE0EEDE04
S11302E02FEF8BE49DE1215080409040E1F700C066
S11302F00000AADE882321F08CEC11DF84E40FDFF8
S11303002FEF86EE98E1215080409040E1F700C045
S11303100000F12CDD24D394B12C96DE882369F2FD
S113032085E5FDDE0F2D10E023E0000F111F2A9557
S1130330E1F7C0E0D0E0F801EC0FFD1FE459FF4FF6
S11303408081EDDE2196C830D105A9F78EEBE7DE7A
S1130350A7DEC82FA5DED0E0D82B84E0CC0FDD1FAC
S11303608A95E1F7CD2FDD0FDD0B81E38F0DA6DE3E
S11303708AE3A4DED7FF07C08DE2A0DE00271127A1
S11303800C1B1D0B01C08E01E0E00A3011050CF4BA
S11303907DCF0A501109EF5FF8CFD12CBB24B39461
S11303A08CCFDD2009F493CFC498E12C90CFF8943E
S10503B0FFCF79
S10F03B23031323334353637383900002E
S9030000FC
